{
  "_format": "hh-sol-artifact-1",
  "contractName": "FileSignature",
  "sourceName": "contracts/FileSignature.sol",
  "abi": [
    {
      "anonymous": false,
      "inputs": [
        {
          "indexed": true,
          "internalType": "address",
          "name": "signer",
          "type": "address"
        },
        {
          "indexed": false,
          "internalType": "bytes32",
          "name": "fileHash",
          "type": "bytes32"
        },
        {
          "indexed": false,
          "internalType": "uint256",
          "name": "timestamp",
          "type": "uint256"
        }
      ],
      "name": "FileSigned",
      "type": "event"
    },
    {
      "inputs": [
        {
          "internalType": "bytes32",
          "name": "fileHash",
          "type": "bytes32"
        },
        {
          "internalType": "address",
          "name": "user",
          "type": "address"
        }
      ],
      "name": "isFileSignedByUser",
      "outputs": [
        {
          "internalType": "bool",
          "name": "",
          "type": "bool"
        }
      ],
      "stateMutability": "view",
      "type": "function"
    },
    {
      "inputs": [
        {
          "internalType": "bytes32",
          "name": "",
          "type": "bytes32"
        },
        {
          "internalType": "uint256",
          "name": "",
          "type": "uint256"
        }
      ],
      "name": "records",
      "outputs": [
        {
          "internalType": "address",
          "name": "signer",
          "type": "address"
        },
        {
          "internalType": "bytes",
          "name": "signature",
          "type": "bytes"
        },
        {
          "internalType": "uint256",
          "name": "timestamp",
          "type": "uint256"
        }
      ],
      "stateMutability": "view",
      "type": "function"
    },
    {
      "inputs": [
        {
          "internalType": "bytes32",
          "name": "fileHash",
          "type": "bytes32"
        },
        {
          "internalType": "bytes",
          "name": "signature",
          "type": "bytes"
        }
      ],
      "name": "signFile",
      "outputs": [],
      "stateMutability": "nonpayable",
      "type": "function"
    },
    {
      "inputs": [
        {
          "internalType": "bytes32",
          "name": "fileHash",
          "type": "bytes32"
        }
      ],
      "name": "verifyFile",
      "outputs": [
        {
          "components": [
            {
              "internalType": "address",
              "name": "signer",
              "type": "address"
            },
            {
              "internalType": "bytes",
              "name": "signature",
              "type": "bytes"
            },
            {
              "internalType": "uint256",
              "name": "timestamp",
              "type": "uint256"
            }
          ],
          "internalType": "struct FileSignature.FileRecord[]",
          "name": "",
          "type": "tuple[]"
        }
      ],
      "stateMutability": "view",
      "type": "function"
    }
  ],
  "bytecode": "0x6080604052348015600f57600080fd5b506110d18061001f6000396000f3fe608060405234801561001057600080fd5b506004361061004c5760003560e01c80632bd3d3ed146100515780632ee809eb146100815780634b67d54b146100b3578063f372b383146100e3575b600080fd5b61006b6004803603810190610066919061073b565b6100ff565b6040516100789190610796565b60405180910390f35b61009b600480360381019061009691906107e7565b6101cf565b6040516100aa939291906108d5565b60405180910390f35b6100cd60048036038101906100c89190610913565b6102be565b6040516100da9190610aba565b60405180910390f35b6100fd60048036038101906100f89190610c11565b610479565b005b600080600090505b600080858152602001908152602001600020805490508110156101c3578273ffffffffffffffffffffffffffffffffffffffff16600080868152602001908152602001600020828154811061015f5761015e610c6d565b5b906000526020600020906003020160000160009054906101000a900473ffffffffffffffffffffffffffffffffffffffff1673ffffffffffffffffffffffffffffffffffffffff16036101b65760019150506101c9565b8080600101915050610107565b50600090505b92915050565b600060205281600052604060002081815481106101eb57600080fd5b9060005260206000209060030201600091509150508060000160009054906101000a900473ffffffffffffffffffffffffffffffffffffffff169080600101805461023590610ccb565b80601f016020809104026020016040519081016040528092919081815260200182805461026190610ccb565b80156102ae5780601f10610283576101008083540402835291602001916102ae565b820191906000526020600020905b81548152906001019060200180831161029157829003601f168201915b5050505050908060020154905083565b606060008060008481526020019081526020016000208054905011610318576040517f08c379a000000000000000000000000000000000000000000000000000000000815260040161030f90610d59565b60405180910390fd5b600080838152602001908152602001600020805480602002602001604051908101604052809291908181526020016000905b8282101561046e57838290600052602060002090600302016040518060600160405290816000820160009054906101000a900473ffffffffffffffffffffffffffffffffffffffff1673ffffffffffffffffffffffffffffffffffffffff1673ffffffffffffffffffffffffffffffffffffffff1681526020016001820180546103d390610ccb565b80601f01602080910402602001604051908101604052809291908181526020018280546103ff90610ccb565b801561044c5780601f106104215761010080835404028352916020019161044c565b820191906000526020600020905b81548152906001019060200180831161042f57829003601f168201915b505050505081526020016002820154815250508152602001906001019061034a565b505050509050919050565b60005b60008084815260200190815260200160002080549050811015610569573373ffffffffffffffffffffffffffffffffffffffff1660008085815260200190815260200160002082815481106104d4576104d3610c6d565b5b906000526020600020906003020160000160009054906101000a900473ffffffffffffffffffffffffffffffffffffffff1673ffffffffffffffffffffffffffffffffffffffff160361055c576040517f08c379a000000000000000000000000000000000000000000000000000000000815260040161055390610dc5565b60405180910390fd5b808060010191505061047c565b5060008083815260200190815260200160002060405180606001604052803373ffffffffffffffffffffffffffffffffffffffff16815260200183815260200142815250908060018154018082558091505060019003906000526020600020906003020160009091909190915060008201518160000160006101000a81548173ffffffffffffffffffffffffffffffffffffffff021916908373ffffffffffffffffffffffffffffffffffffffff16021790555060208201518160010190816106329190610f91565b506040820151816002015550503373ffffffffffffffffffffffffffffffffffffffff167f460f59ecdab6c64f3ebb6c57a20e32efa4390d9b5ff0baf0018ae446a93269538342604051610687929190611072565b60405180910390a25050565b6000604051905090565b600080fd5b600080fd5b6000819050919050565b6106ba816106a7565b81146106c557600080fd5b50565b6000813590506106d7816106b1565b92915050565b600073ffffffffffffffffffffffffffffffffffffffff82169050919050565b6000610708826106dd565b9050919050565b610718816106fd565b811461072357600080fd5b50565b6000813590506107358161070f565b92915050565b600080604083850312156107525761075161069d565b5b6000610760858286016106c8565b925050602061077185828601610726565b9150509250929050565b60008115159050919050565b6107908161077b565b82525050565b60006020820190506107ab6000830184610787565b92915050565b6000819050919050565b6107c4816107b1565b81146107cf57600080fd5b50565b6000813590506107e1816107bb565b92915050565b600080604083850312156107fe576107fd61069d565b5b600061080c858286016106c8565b925050602061081d858286016107d2565b9150509250929050565b610830816106fd565b82525050565b600081519050919050565b600082825260208201905092915050565b60005b83811015610870578082015181840152602081019050610855565b60008484015250505050565b6000601f19601f8301169050919050565b600061089882610836565b6108a28185610841565b93506108b2818560208601610852565b6108bb8161087c565b840191505092915050565b6108cf816107b1565b82525050565b60006060820190506108ea6000830186610827565b81810360208301526108fc818561088d565b905061090b60408301846108c6565b949350505050565b6000602082840312156109295761092861069d565b5b6000610937848285016106c8565b91505092915050565b600081519050919050565b600082825260208201905092915050565b6000819050602082019050919050565b610975816106fd565b82525050565b600082825260208201905092915050565b600061099782610836565b6109a1818561097b565b93506109b1818560208601610852565b6109ba8161087c565b840191505092915050565b6109ce816107b1565b82525050565b60006060830160008301516109ec600086018261096c565b5060208301518482036020860152610a04828261098c565b9150506040830151610a1960408601826109c5565b508091505092915050565b6000610a3083836109d4565b905092915050565b6000602082019050919050565b6000610a5082610940565b610a5a818561094b565b935083602082028501610a6c8561095c565b8060005b85811015610aa85784840389528151610a898582610a24565b9450610a9483610a38565b925060208a01995050600181019050610a70565b50829750879550505050505092915050565b60006020820190508181036000830152610ad48184610a45565b905092915050565b600080fd5b600080fd5b7f4e487b7100000000000000000000000000000000000000000000000000000000600052604160045260246000fd5b610b1e8261087c565b810181811067ffffffffffffffff82111715610b3d57610b3c610ae6565b5b80604052505050565b6000610b50610693565b9050610b5c8282610b15565b919050565b600067ffffffffffffffff821115610b7c57610b7b610ae6565b5b610b858261087c565b9050602081019050919050565b82818337600083830152505050565b6000610bb4610baf84610b61565b610b46565b905082815260208101848484011115610bd057610bcf610ae1565b5b610bdb848285610b92565b509392505050565b600082601f830112610bf857610bf7610adc565b5b8135610c08848260208601610ba1565b91505092915050565b60008060408385031215610c2857610c2761069d565b5b6000610c36858286016106c8565b925050602083013567ffffffffffffffff811115610c5757610c566106a2565b5b610c6385828601610be3565b9150509250929050565b7f4e487b7100000000000000000000000000000000000000000000000000000000600052603260045260246000fd5b7f4e487b7100000000000000000000000000000000000000000000000000000000600052602260045260246000fd5b60006002820490506001821680610ce357607f821691505b602082108103610cf657610cf5610c9c565b5b50919050565b600082825260208201905092915050565b7f46696c65206e6f74207369676e65640000000000000000000000000000000000600082015250565b6000610d43600f83610cfc565b9150610d4e82610d0d565b602082019050919050565b60006020820190508181036000830152610d7281610d36565b9050919050565b7f46696c6520616c7265616479207369676e656420627920746869732075736572600082015250565b6000610daf602083610cfc565b9150610dba82610d79565b602082019050919050565b60006020820190508181036000830152610dde81610da2565b9050919050565b60008190508160005260206000209050919050565b60006020601f8301049050919050565b600082821b905092915050565b600060088302610e477fffffffffffffffffffffffffffffffffffffffffffffffffffffffffffffffff82610e0a565b610e518683610e0a565b95508019841693508086168417925050509392505050565b6000819050919050565b6000610e8e610e89610e84846107b1565b610e69565b6107b1565b9050919050565b6000819050919050565b610ea883610e73565b610ebc610eb482610e95565b848454610e17565b825550505050565b600090565b610ed1610ec4565b610edc818484610e9f565b505050565b5b81811015610f0057610ef5600082610ec9565b600181019050610ee2565b5050565b601f821115610f4557610f1681610de5565b610f1f84610dfa565b81016020851015610f2e578190505b610f42610f3a85610dfa565b830182610ee1565b50505b505050565b600082821c905092915050565b6000610f6860001984600802610f4a565b1980831691505092915050565b6000610f818383610f57565b9150826002028217905092915050565b610f9a82610836565b67ffffffffffffffff811115610fb357610fb2610ae6565b5b610fbd8254610ccb565b610fc8828285610f04565b600060209050601f831160018114610ffb5760008415610fe9578287015190505b610ff38582610f75565b86555061105b565b601f19841661100986610de5565b60005b828110156110315784890151825560018201915060208501945060208101905061100c565b8683101561104e578489015161104a601f891682610f57565b8355505b6001600288020188555050505b505050505050565b61106c816106a7565b82525050565b60006040820190506110876000830185611063565b61109460208301846108c6565b939250505056fea26469706673582212209a6a76da3fead76361c8cad821c8b5f43eb83adb001f69263b0e353f96cc8fba64736f6c634300081c0033",
  "linkReferences": {},
  "deployedLinkReferences": {}
}